{"abi":[{"type":"constructor","inputs":[{"name":"name","type":"string","internalType":"string"},{"name":"symbol","type":"string","internalType":"string"},{"name":"initialSupply","type":"uint256","internalType":"uint256"},{"name":"gatewayAddress","type":"address","internalType":"address payable"},{"name":"feePayerAddress","type":"string","internalType":"string"}],"stateMutability":"nonpayable"},{"type":"function","name":"allowance","inputs":[{"name":"owner","type":"address","internalType":"address"},{"name":"spender","type":"address","internalType":"address"}],"outputs":[{"name":"","type":"uint256","internalType":"uint256"}],"stateMutability":"view"},{"type":"function","name":"approve","inputs":[{"name":"spender","type":"address","internalType":"address"},{"name":"value","type":"uint256","internalType":"uint256"}],"outputs":[{"name":"","type":"bool","internalType":"bool"}],"stateMutability":"nonpayable"},{"type":"function","name":"balanceOf","inputs":[{"name":"account","type":"address","internalType":"address"}],"outputs":[{"name":"","type":"uint256","internalType":"uint256"}],"stateMutability":"view"},{"type":"function","name":"decimals","inputs":[],"outputs":[{"name":"","type":"uint8","internalType":"uint8"}],"stateMutability":"view"},{"type":"function","name":"gatewayContract","inputs":[],"outputs":[{"name":"","type":"address","internalType":"contract IGateway"}],"stateMutability":"view"},{"type":"function","name":"iAck","inputs":[{"name":"requestIdentifier","type":"uint256","internalType":"uint256"},{"name":"execFlag","type":"bool","internalType":"bool"},{"name":"execData","type":"bytes","internalType":"bytes"}],"outputs":[],"stateMutability":"nonpayable"},{"type":"function","name":"iReceive","inputs":[{"name":"","type":"string","internalType":"string"},{"name":"packet","type":"bytes","internalType":"bytes"},{"name":"srcChainId","type":"string","internalType":"string"}],"outputs":[{"name":"","type":"bytes","internalType":"bytes"}],"stateMutability":"nonpayable"},{"type":"function","name":"mint","inputs":[{"name":"to","type":"address","internalType":"address"},{"name":"amount","type":"uint256","internalType":"uint256"}],"outputs":[],"stateMutability":"nonpayable"},{"type":"function","name":"name","inputs":[],"outputs":[{"name":"","type":"string","internalType":"string"}],"stateMutability":"view"},{"type":"function","name":"ourContractOnChains","inputs":[{"name":"","type":"string","internalType":"string"}],"outputs":[{"name":"","type":"string","internalType":"string"}],"stateMutability":"view"},{"type":"function","name":"owner","inputs":[],"outputs":[{"name":"","type":"address","internalType":"address"}],"stateMutability":"view"},{"type":"function","name":"setContractOnChain","inputs":[{"name":"chainId","type":"string","internalType":"string"},{"name":"contractAddress","type":"string","internalType":"string"}],"outputs":[],"stateMutability":"nonpayable"},{"type":"function","name":"setDappMetadata","inputs":[{"name":"feePayerAddress","type":"string","internalType":"string"}],"outputs":[],"stateMutability":"nonpayable"},{"type":"function","name":"symbol","inputs":[],"outputs":[{"name":"","type":"string","internalType":"string"}],"stateMutability":"view"},{"type":"function","name":"totalSupply","inputs":[],"outputs":[{"name":"","type":"uint256","internalType":"uint256"}],"stateMutability":"view"},{"type":"function","name":"transfer","inputs":[{"name":"to","type":"address","internalType":"address"},{"name":"value","type":"uint256","internalType":"uint256"}],"outputs":[{"name":"","type":"bool","internalType":"bool"}],"stateMutability":"nonpayable"},{"type":"function","name":"transferCrossChain","inputs":[{"name":"destChainId","type":"string","internalType":"string"},{"name":"amount","type":"uint256","internalType":"uint256"},{"name":"recipient","type":"bytes","internalType":"bytes"},{"name":"requestMetadata","type":"bytes","internalType":"bytes"}],"outputs":[],"stateMutability":"payable"},{"type":"function","name":"transferFrom","inputs":[{"name":"from","type":"address","internalType":"address"},{"name":"to","type":"address","internalType":"address"},{"name":"value","type":"uint256","internalType":"uint256"}],"outputs":[{"name":"","type":"bool","internalType":"bool"}],"stateMutability":"nonpayable"},{"type":"function","name":"transferFromCrossChain","inputs":[{"name":"destChainId","type":"string","internalType":"string"},{"name":"amount","type":"uint256","internalType":"uint256"},{"name":"recipient","type":"bytes","internalType":"bytes"},{"name":"requestMetadata","type":"bytes","internalType":"bytes"}],"outputs":[],"stateMutability":"payable"},{"type":"event","name":"Approval","inputs":[{"name":"owner","type":"address","indexed":true,"internalType":"address"},{"name":"spender","type":"address","indexed":true,"internalType":"address"},{"name":"value","type":"uint256","indexed":false,"internalType":"uint256"}],"anonymous":false},{"type":"event","name":"Transfer","inputs":[{"name":"from","type":"address","indexed":true,"internalType":"address"},{"name":"to","type":"address","indexed":true,"internalType":"address"},{"name":"value","type":"uint256","indexed":false,"internalType":"uint256"}],"anonymous":false},{"type":"error","name":"ERC20InsufficientAllowance","inputs":[{"name":"spender","type":"address","internalType":"address"},{"name":"allowance","type":"uint256","internalType":"uint256"},{"name":"needed","type":"uint256","internalType":"uint256"}]},{"type":"error","name":"ERC20InsufficientBalance","inputs":[{"name":"sender","type":"address","internalType":"address"},{"name":"balance","type":"uint256","internalType":"uint256"},{"name":"needed","type":"uint256","internalType":"uint256"}]},{"type":"error","name":"ERC20InvalidApprover","inputs":[{"name":"approver","type":"address","internalType":"address"}]},{"type":"error","name":"ERC20InvalidReceiver","inputs":[{"name":"receiver","type":"address","internalType":"address"}]},{"type":"error","name":"ERC20InvalidSender","inputs":[{"name":"sender","type":"address","internalType":"address"}]},{"type":"error","name":"ERC20InvalidSpender","inputs":[{"name":"spender","type":"address","internalType":"address"}]}],"bytecode":{"object":"0x608060405234801561001057600080fd5b50604051611f28380380611f2883398101604081905261002f91610346565b8484600361003d838261048e565b50600461004a828261048e565b5050600680546001600160a01b03199081166001600160a01b03861617909155600580543392168217905561009c9150610082601290565b61008d90600a61064b565b6100979086610661565b61011a565b60065460405163778ae5ed60e11b81526001600160a01b039091169063ef15cbda906100cc908490600401610678565b6020604051808303816000875af11580156100eb573d6000803e3d6000fd5b505050506040513d601f19601f8201168201806040525081019061010f91906106ab565b5050505050506106d7565b6001600160a01b0382166101495760405163ec442f0560e01b8152600060048201526024015b60405180910390fd5b61015560008383610159565b5050565b6001600160a01b03831661018457806002600082825461017991906106c4565b909155506101f69050565b6001600160a01b038316600090815260208190526040902054818110156101d75760405163391434e360e21b81526001600160a01b03851660048201526024810182905260448101839052606401610140565b6001600160a01b03841660009081526020819052604090209082900390555b6001600160a01b03821661021257600280548290039055610231565b6001600160a01b03821660009081526020819052604090208054820190555b816001600160a01b0316836001600160a01b03167fddf252ad1be2c89b69c2b068fc378daa952ba7f163c4a11628f55a4df523b3ef8360405161027691815260200190565b60405180910390a3505050565b634e487b7160e01b600052604160045260246000fd5b60005b838110156102b457818101518382015260200161029c565b50506000910152565b600082601f8301126102ce57600080fd5b81516001600160401b038111156102e7576102e7610283565b604051601f8201601f19908116603f011681016001600160401b038111828210171561031557610315610283565b60405281815283820160200185101561032d57600080fd5b61033e826020830160208701610299565b949350505050565b600080600080600060a0868803121561035e57600080fd5b85516001600160401b0381111561037457600080fd5b610380888289016102bd565b602088015190965090506001600160401b0381111561039e57600080fd5b6103aa888289016102bd565b60408801516060890151919650945090506001600160a01b03811681146103d057600080fd5b60808701519092506001600160401b038111156103ec57600080fd5b6103f8888289016102bd565b9150509295509295909350565b600181811c9082168061041957607f821691505b60208210810361043957634e487b7160e01b600052602260045260246000fd5b50919050565b601f82111561048957806000526020600020601f840160051c810160208510156104665750805b601f840160051c820191505b818110156104865760008155600101610472565b50505b505050565b81516001600160401b038111156104a7576104a7610283565b6104bb816104b58454610405565b8461043f565b6020601f8211600181146104ef57600083156104d75750848201515b600019600385901b1c1916600184901b178455610486565b600084815260208120601f198516915b8281101561051f57878501518255602094850194600190920191016104ff565b508482101561053d5786840151600019600387901b60f8161c191681555b50505050600190811b01905550565b634e487b7160e01b600052601160045260246000fd5b6001815b600184111561059d578085048111156105815761058161054c565b600184161561058f57908102905b60019390931c928002610566565b935093915050565b6000826105b457506001610645565b816105c157506000610645565b81600181146105d757600281146105e1576105fd565b6001915050610645565b60ff8411156105f2576105f261054c565b50506001821b610645565b5060208310610133831016604e8410600b8410161715610620575081810a610645565b61062d6000198484610562565b80600019048211156106415761064161054c565b0290505b92915050565b600061065a60ff8416836105a5565b9392505050565b80820281158282048414176106455761064561054c565b6020815260008251806020840152610697816040850160208701610299565b601f01601f19169190910160400192915050565b6000602082840312156106bd57600080fd5b5051919050565b808201808211156106455761064561054c565b611842806106e66000396000f3fe6080604052600436106101145760003560e01c806370a08231116100a0578063b9958e8a11610064578063b9958e8a14610314578063dd62ed3e14610327578063eb0cde1d14610347578063ec24876b14610367578063ef15cbda1461037a57600080fd5b806370a08231146102515780638da5cb5b1461028757806395d89b41146102bf578063a4e21288146102d4578063a9059cbb146102f457600080fd5b80631aa6485a116100e75780631aa6485a146101b557806323b872dd146101d5578063313ce567146101f557806340c10f19146102115780636ef926221461023157600080fd5b806306fdde0314610119578063095ea7b3146101445780630d1ff3a51461017457806318160ddd14610196575b600080fd5b34801561012557600080fd5b5061012e61039a565b60405161013b9190610eed565b60405180910390f35b34801561015057600080fd5b5061016461015f366004610f23565b61042c565b604051901515815260200161013b565b34801561018057600080fd5b5061019461018f366004610f95565b610446565b005b3480156101a257600080fd5b506002545b60405190815260200161013b565b3480156101c157600080fd5b5061012e6101d03660046110ca565b6104c8565b3480156101e157600080fd5b506101646101f036600461115b565b610571565b34801561020157600080fd5b506040516012815260200161013b565b34801561021d57600080fd5b5061019461022c366004610f23565b610595565b34801561023d57600080fd5b5061012e61024c366004611198565b6105b8565b34801561025d57600080fd5b506101a761026c3660046111d4565b6001600160a01b031660009081526020819052604090205490565b34801561029357600080fd5b506005546102a7906001600160a01b031681565b6040516001600160a01b03909116815260200161013b565b3480156102cb57600080fd5b5061012e61065d565b3480156102e057600080fd5b506101946102ef3660046111ef565b505050565b34801561030057600080fd5b5061016461030f366004610f23565b61066c565b610194610322366004611236565b61067a565b34801561033357600080fd5b506101a76103423660046112e3565b610841565b34801561035357600080fd5b506006546102a7906001600160a01b031681565b610194610375366004611236565b61086c565b34801561038657600080fd5b50610194610395366004611198565b610aa6565b6060600380546103a990611316565b80601f01602080910402602001604051908101604052809291908181526020018280546103d590611316565b80156104225780601f106103f757610100808354040283529160200191610422565b820191906000526020600020905b81548152906001019060200180831161040557829003601f168201915b5050505050905090565b60003361043a818585610b60565b60019150505b92915050565b6005546001600160a01b031633146104925760405162461bcd60e51b815260206004820152600a60248201526937b7363c9037bbb732b960b11b60448201526064015b60405180910390fd5b8181600786866040516104a6929190611350565b908152602001604051809103902091826104c19291906113a7565b5050505050565b6006546060906001600160a01b031633146105145760405162461bcd60e51b815260206004820152600c60248201526b6f6e6c79206761746577617960a01b6044820152606401610489565b6000808480602001905181019061052b9190611466565b91509150610546610540826020015160601c90565b83610b6d565b836040516020016105579190610eed565b604051602081830303815290604052925050509392505050565b60003361057f858285610ba3565b61058a858585610c09565b506001949350505050565b6105b4826105a56012600a6115e6565b6105af90846115f5565b610b6d565b5050565b8051602081830181018051600782529282019190930120915280546105dc90611316565b80601f016020809104026020016040519081016040528092919081815260200182805461060890611316565b80156106555780601f1061062a57610100808354040283529160200191610655565b820191906000526020600020905b81548152906001019060200180831161063857829003601f168201915b505050505081565b6060600480546103a990611316565b60003361043a818585610c09565b604080516000815260208101918290525181209060079061069e908a908a90611350565b90815260200160405180910390206040516020016106bc919061160c565b604051602081830303815290604052805190602001200361071a5760405162461bcd60e51b815260206004820152601860248201527718dbdb9d1c9858dd081bdb8819195cdd081b9bdd081cd95d60421b6044820152606401610489565b6107243386610c68565b600085858560405160200161073b939291906116aa565b6040516020818303038152906040529050600060078989604051610760929190611350565b9081526020016040518091039020826040516020016107809291906116cd565b6040516020818303038152906040529050600660009054906101000a90046001600160a01b03166001600160a01b0316637bed470a3460016000604051806020016040528060008152508e8e8b8b8a6040518a63ffffffff1660e01b81526004016107f2989796959493929190611763565b60206040518083038185885af1158015610810573d6000803e3d6000fd5b50505050506040513d601f19601f8201168201806040525081019061083591906117cd565b50505050505050505050565b6001600160a01b03918216600090815260016020908152604080832093909416825291909152205490565b6040805160008152602081019182905251812090600790610890908a908a90611350565b90815260200160405180910390206040516020016108ae919061160c565b604051602081830303815290604052805190602001200361090c5760405162461bcd60e51b815260206004820152601860248201527718dbdb9d1c9858dd081bdb8819195cdd081b9bdd081cd95d60421b6044820152606401610489565b60006109183233610841565b90508581101561096a5760405162461bcd60e51b815260206004820152601d60248201527f45524332303a20696e73756666696369656e7420616c6c6f77616e63650000006044820152606401610489565b61097e323361097989856117e6565b610b60565b6109883287610c68565b600086868660405160200161099f939291906116aa565b6040516020818303038152906040529050600060078a8a6040516109c4929190611350565b9081526020016040518091039020826040516020016109e49291906116cd565b6040516020818303038152906040529050600660009054906101000a90046001600160a01b03166001600160a01b0316637bed470a3460016000604051806020016040528060008152508f8f8c8c8a6040518a63ffffffff1660e01b8152600401610a56989796959493929190611763565b60206040518083038185885af1158015610a74573d6000803e3d6000fd5b50505050506040513d601f19601f82011682018060405250810190610a9991906117cd565b5050505050505050505050565b6005546001600160a01b03163314610aed5760405162461bcd60e51b815260206004820152600a60248201526937b7363c9037bbb732b960b11b6044820152606401610489565b60065460405163778ae5ed60e11b81526001600160a01b039091169063ef15cbda90610b1d908490600401610eed565b6020604051808303816000875af1158015610b3c573d6000803e3d6000fd5b505050506040513d601f19601f820116820180604052508101906105b491906117cd565b6102ef8383836001610c9e565b6001600160a01b038216610b975760405163ec442f0560e01b815260006004820152602401610489565b6105b460008383610d73565b6000610baf8484610841565b90506000198114610c035781811015610bf457604051637dc7a0d960e11b81526001600160a01b03841660048201526024810182905260448101839052606401610489565b610c0384848484036000610c9e565b50505050565b6001600160a01b038316610c3357604051634b637e8f60e11b815260006004820152602401610489565b6001600160a01b038216610c5d5760405163ec442f0560e01b815260006004820152602401610489565b6102ef838383610d73565b6001600160a01b038216610c9257604051634b637e8f60e11b815260006004820152602401610489565b6105b482600083610d73565b6001600160a01b038416610cc85760405163e602df0560e01b815260006004820152602401610489565b6001600160a01b038316610cf257604051634a1406b160e11b815260006004820152602401610489565b6001600160a01b0380851660009081526001602090815260408083209387168352929052208290558015610c0357826001600160a01b0316846001600160a01b03167f8c5be1e5ebec7d5bd14f71427d1e84f3dd0314c0f7b2291e5b200ac8c7c3b92584604051610d6591815260200190565b60405180910390a350505050565b6001600160a01b038316610d9e578060026000828254610d9391906117f9565b90915550610e109050565b6001600160a01b03831660009081526020819052604090205481811015610df15760405163391434e360e21b81526001600160a01b03851660048201526024810182905260448101839052606401610489565b6001600160a01b03841660009081526020819052604090209082900390555b6001600160a01b038216610e2c57600280548290039055610e4b565b6001600160a01b03821660009081526020819052604090208054820190555b816001600160a01b0316836001600160a01b03167fddf252ad1be2c89b69c2b068fc378daa952ba7f163c4a11628f55a4df523b3ef83604051610e9091815260200190565b60405180910390a3505050565b60005b83811015610eb8578181015183820152602001610ea0565b50506000910152565b60008151808452610ed9816020860160208601610e9d565b601f01601f19169290920160200192915050565b602081526000610f006020830184610ec1565b9392505050565b80356001600160a01b0381168114610f1e57600080fd5b919050565b60008060408385031215610f3657600080fd5b610f3f83610f07565b946020939093013593505050565b60008083601f840112610f5f57600080fd5b5081356001600160401b03811115610f7657600080fd5b602083019150836020828501011115610f8e57600080fd5b9250929050565b60008060008060408587031215610fab57600080fd5b84356001600160401b03811115610fc157600080fd5b610fcd87828801610f4d565b90955093505060208501356001600160401b03811115610fec57600080fd5b610ff887828801610f4d565b95989497509550505050565b634e487b7160e01b600052604160045260246000fd5b604051601f8201601f191681016001600160401b038111828210171561104257611042611004565b604052919050565b60006001600160401b0382111561106357611063611004565b50601f01601f191660200190565b600082601f83011261108257600080fd5b813560208301600061109b6110968461104a565b61101a565b90508281528583830111156110af57600080fd5b82826020830137600092810160200192909252509392505050565b6000806000606084860312156110df57600080fd5b83356001600160401b038111156110f557600080fd5b61110186828701611071565b93505060208401356001600160401b0381111561111d57600080fd5b61112986828701611071565b92505060408401356001600160401b0381111561114557600080fd5b61115186828701611071565b9150509250925092565b60008060006060848603121561117057600080fd5b61117984610f07565b925061118760208501610f07565b929592945050506040919091013590565b6000602082840312156111aa57600080fd5b81356001600160401b038111156111c057600080fd5b6111cc84828501611071565b949350505050565b6000602082840312156111e657600080fd5b610f0082610f07565b60008060006060848603121561120457600080fd5b833592506020840135801515811461121b57600080fd5b915060408401356001600160401b0381111561114557600080fd5b60008060008060008060006080888a03121561125157600080fd5b87356001600160401b0381111561126757600080fd5b6112738a828b01610f4d565b9098509650506020880135945060408801356001600160401b0381111561129957600080fd5b6112a58a828b01610f4d565b90955093505060608801356001600160401b038111156112c457600080fd5b6112d08a828b01610f4d565b989b979a50959850939692959293505050565b600080604083850312156112f657600080fd5b6112ff83610f07565b915061130d60208401610f07565b90509250929050565b600181811c9082168061132a57607f821691505b60208210810361134a57634e487b7160e01b600052602260045260246000fd5b50919050565b8183823760009101908152919050565b601f8211156102ef57806000526020600020601f840160051c810160208510156113875750805b601f840160051c820191505b818110156104c15760008155600101611393565b6001600160401b038311156113be576113be611004565b6113d2836113cc8354611316565b83611360565b6000601f84116001811461140657600085156113ee5750838201355b600019600387901b1c1916600186901b1783556104c1565b600083815260209020601f19861690835b828110156114375786850135825560209485019460019092019101611417565b50868210156114545760001960f88860031b161c19848701351681555b505060018560011b0183555050505050565b6000806040838503121561147957600080fd5b825160208401519092506001600160401b0381111561149757600080fd5b8301601f810185136114a857600080fd5b80516114b66110968261104a565b8181528660208385010111156114cb57600080fd5b6114dc826020830160208601610e9d565b8093505050509250929050565b634e487b7160e01b600052601160045260246000fd5b6001815b600184111561153a5780850481111561151e5761151e6114e9565b600184161561152c57908102905b60019390931c928002611503565b935093915050565b60008261155157506001610440565b8161155e57506000610440565b8160018114611574576002811461157e5761159a565b6001915050610440565b60ff84111561158f5761158f6114e9565b50506001821b610440565b5060208310610133831016604e8410600b84101617156115bd575081810a610440565b6115ca60001984846114ff565b80600019048211156115de576115de6114e9565b029392505050565b6000610f0060ff841683611542565b8082028115828204841417610440576104406114e9565b600080835461161a81611316565b600182168015611631576001811461164657611676565b60ff1983168652811515820286019350611676565b86600052602060002060005b8381101561166e57815488820152600190910190602001611652565b505081860193505b509195945050505050565b81835281816020850137506000828201602090810191909152601f909101601f19169091010190565b8381526040602082015260006116c4604083018486611681565b95945050505050565b6040815260008084546116df81611316565b80604086015260018216600081146116fe576001811461171a5761174e565b60ff1983166060870152606082151560051b870101935061174e565b87600052602060002060005b8381101561174557815488820160600152600190910190602001611726565b87016060019450505b50505082810360208401526116c48185610ec1565b88815287602082015260c06040820152600061178260c0830189610ec1565b828103606084015261179581888a611681565b905082810360808401526117aa818688611681565b905082810360a08401526117be8185610ec1565b9b9a5050505050505050505050565b6000602082840312156117df57600080fd5b5051919050565b81810381811115610440576104406114e9565b80820180821115610440576104406114e956fea2646970667358221220de0a2225a3d100e85d1ed00d60b127b847304171309dc2573722750991c235d764736f6c634300081b0033","linkReferences":{}},"methodIdentifiers":{"allowance(address,address)":"dd62ed3e","approve(address,uint256)":"095ea7b3","balanceOf(address)":"70a08231","decimals()":"313ce567","gatewayContract()":"eb0cde1d","iAck(uint256,bool,bytes)":"a4e21288","iReceive(string,bytes,string)":"1aa6485a","mint(address,uint256)":"40c10f19","name()":"06fdde03","ourContractOnChains(string)":"6ef92622","owner()":"8da5cb5b","setContractOnChain(string,string)":"0d1ff3a5","setDappMetadata(string)":"ef15cbda","symbol()":"95d89b41","totalSupply()":"18160ddd","transfer(address,uint256)":"a9059cbb","transferCrossChain(string,uint256,bytes,bytes)":"b9958e8a","transferFrom(address,address,uint256)":"23b872dd","transferFromCrossChain(string,uint256,bytes,bytes)":"ec24876b"},"id":28}