{"abi":[{"type":"constructor","inputs":[],"stateMutability":"nonpayable"},{"type":"function","name":"contractOwner","inputs":[],"outputs":[{"name":"","type":"address","internalType":"address"}],"stateMutability":"view"},{"type":"function","name":"createPayout","inputs":[{"name":"id","type":"string","internalType":"string"},{"name":"tokenAddress","type":"address","internalType":"address"},{"name":"amount","type":"uint256","internalType":"uint256"},{"name":"password","type":"string","internalType":"string"},{"name":"count","type":"uint256","internalType":"uint256"}],"outputs":[],"stateMutability":"nonpayable"},{"type":"function","name":"payouts","inputs":[{"name":"","type":"string","internalType":"string"}],"outputs":[{"name":"amount","type":"uint256","internalType":"uint256"},{"name":"owner","type":"address","internalType":"address"},{"name":"tokenAddress","type":"address","internalType":"address"},{"name":"passwordHash","type":"bytes32","internalType":"bytes32"},{"name":"count","type":"uint256","internalType":"uint256"},{"name":"status","type":"uint8","internalType":"enum TokenTrove.PayoutStatus"}],"stateMutability":"view"},{"type":"function","name":"redeem","inputs":[{"name":"id","type":"string","internalType":"string"},{"name":"password","type":"string","internalType":"string"}],"outputs":[],"stateMutability":"nonpayable"},{"type":"function","name":"setStatus","inputs":[{"name":"id","type":"string","internalType":"string"},{"name":"status","type":"uint8","internalType":"enum TokenTrove.PayoutStatus"}],"outputs":[],"stateMutability":"nonpayable"}],"bytecode":{"object":"0x6080604052348015600f57600080fd5b50600180546001600160a01b03191633179055610bb1806100316000396000f3fe608060405234801561001057600080fd5b50600436106100575760003560e01c80630d48e6971461005c578063322000fa14610071578063ce606ee014610084578063d7be0a06146100b4578063deaab7a914610125575b600080fd5b61006f61006a36600461085b565b610138565b005b61006f61007f36600461093d565b6103cd565b600154610097906001600160a01b031681565b6040516001600160a01b0390911681526020015b60405180910390f35b6101136100c23660046109ab565b80518082016020908101805160008252928201919093012091528054600182015460028301546003840154600485015460059095015493946001600160a01b03938416949290931692909160ff1686565b6040516100ab969594939291906109fe565b61006f610133366004610a59565b6105fc565b60006001600160a01b03166000866040516101539190610ab4565b908152604051908190036020019020600101546001600160a01b0316146101cc5760405162461bcd60e51b815260206004820152602260248201527f5061796f75742077697468207468697320494420616c72656164792065786973604482015261747360f01b60648201526084015b60405180910390fd5b6101d68184610af9565b604051636eb1769f60e11b81523360048201523060248201526001600160a01b0386169063dd62ed3e90604401602060405180830381865afa158015610220573d6000803e3d6000fd5b505050506040513d601f19601f820116820180604052508101906102449190610b16565b10156102a65760405162461bcd60e51b815260206004820152602b60248201527f436f6e747261637420646f6573206e6f7420686176652073756666696369656e60448201526a7420616c6c6f77616e636560a81b60648201526084016101c3565b6000826040516020016102b99190610ab4565b6040516020818303038152906040528051906020012090506040518060c00160405280858152602001336001600160a01b03168152602001866001600160a01b031681526020018281526020018381526020016000600281111561031f5761031f6109e8565b8152506000876040516103329190610ab4565b90815260408051602092819003830190208351815591830151600180840180546001600160a01b03199081166001600160a01b039485161790915592850151600280860180549095169190931617909255606084015160038401556080840151600484015560a08401516005840180549193909260ff199092169184908111156103be576103be6109e8565b02179055505050505050505050565b60008084846040516103e0929190610b2f565b90815260405190819003602001902090506000600582015460ff16600281111561040c5761040c6109e8565b146104505760405162461bcd60e51b81526020600482015260146024820152735061796f7574206973206e6f742061637469766560601b60448201526064016101c3565b60008160040154116104c25760405162461bcd60e51b815260206004820152603560248201527f5061796f757420686173206265656e2072657472696576656420746865206d6160448201527478696d756d206e756d626572206f662074696d657360581b60648201526084016101c3565b816040516020016104d39190610ab4565b6040516020818303038152906040528051906020012081600301541461052e5760405162461bcd60e51b815260206004820152601060248201526f125b9d985b1a59081c185cdcdddbdc9960821b60448201526064016101c3565b6002810154600182015482546040516323b872dd60e01b81526001600160a01b039283166004820152336024820152604481019190915291169081906323b872dd906064016020604051808303816000875af1158015610592573d6000803e3d6000fd5b505050506040513d601f19601f820116820180604052508101906105b69190610b3f565b6105bf57600080fd5b60018260040160008282546105d49190610b68565b909155505060048201546000036105f55760058201805460ff191660021790555b5050505050565b8282336001600160a01b03166000838360405161061a929190610b2f565b908152604051908190036020019020600101546001600160a01b0316146106995760405162461bcd60e51b815260206004820152602d60248201527f4f6e6c7920746865207061796f7574206f776e65722063616e20706572666f7260448201526c36903a3434b99030b1ba34b7b760991b60648201526084016101c3565b60008086866040516106ac929190610b2f565b90815260405190819003602001902090506000600582015460ff1660028111156106d8576106d86109e8565b1461071c5760405162461bcd60e51b81526020600482015260146024820152735061796f7574206973206e6f742061637469766560601b60448201526064016101c3565b60018101546001600160a01b031633146107885760405162461bcd60e51b815260206004820152602760248201527f4f6e6c7920746865207061796f7574206f776e65722063616e206163746976616044820152667465207468697360c81b60648201526084016101c3565b60058101805485919060ff191660018360028111156107a9576107a96109e8565b0217905550505050505050565b634e487b7160e01b600052604160045260246000fd5b600082601f8301126107dd57600080fd5b813567ffffffffffffffff8111156107f7576107f76107b6565b604051601f8201601f19908116603f0116810167ffffffffffffffff81118282101715610826576108266107b6565b60405281815283820160200185101561083e57600080fd5b816020850160208301376000918101602001919091529392505050565b600080600080600060a0868803121561087357600080fd5b853567ffffffffffffffff81111561088a57600080fd5b610896888289016107cc565b95505060208601356001600160a01b03811681146108b357600080fd5b935060408601359250606086013567ffffffffffffffff8111156108d657600080fd5b6108e2888289016107cc565b95989497509295608001359392505050565b60008083601f84011261090657600080fd5b50813567ffffffffffffffff81111561091e57600080fd5b60208301915083602082850101111561093657600080fd5b9250929050565b60008060006040848603121561095257600080fd5b833567ffffffffffffffff81111561096957600080fd5b610975868287016108f4565b909450925050602084013567ffffffffffffffff81111561099557600080fd5b6109a1868287016107cc565b9150509250925092565b6000602082840312156109bd57600080fd5b813567ffffffffffffffff8111156109d457600080fd5b6109e0848285016107cc565b949350505050565b634e487b7160e01b600052602160045260246000fd5b8681526001600160a01b03868116602083015285166040820152606081018490526080810183905260c0810160038310610a4857634e487b7160e01b600052602160045260246000fd5b8260a0830152979650505050505050565b600080600060408486031215610a6e57600080fd5b833567ffffffffffffffff811115610a8557600080fd5b610a91868287016108f4565b909450925050602084013560038110610aa957600080fd5b809150509250925092565b6000825160005b81811015610ad55760208186018101518583015201610abb565b506000920191825250919050565b634e487b7160e01b600052601160045260246000fd5b8082028115828204841417610b1057610b10610ae3565b92915050565b600060208284031215610b2857600080fd5b5051919050565b8183823760009101908152919050565b600060208284031215610b5157600080fd5b81518015158114610b6157600080fd5b9392505050565b81810381811115610b1057610b10610ae356fea264697066735822122024e5730706c8f74c2e4614c5ac817fca0f3598ce859590c9bfb23349904c3d1664736f6c634300081b0033","linkReferences":{}},"methodIdentifiers":{"contractOwner()":"ce606ee0","createPayout(string,address,uint256,string,uint256)":"0d48e697","payouts(string)":"d7be0a06","redeem(string,string)":"322000fa","setStatus(string,uint8)":"deaab7a9"},"id":21}